{
  "_format": "hh-sol-artifact-1",
  "contractName": "TonomyToken",
  "sourceName": "contracts/TonomyToken.sol",
  "abi": [
    {
      "inputs": [],
      "stateMutability": "nonpayable",
      "type": "constructor"
    },
    {
      "anonymous": false,
      "inputs": [
        {
          "indexed": false,
          "internalType": "address",
          "name": "previousAdmin",
          "type": "address"
        },
        {
          "indexed": false,
          "internalType": "address",
          "name": "newAdmin",
          "type": "address"
        }
      ],
      "name": "AdminChanged",
      "type": "event"
    },
    {
      "anonymous": false,
      "inputs": [
        {
          "indexed": true,
          "internalType": "address",
          "name": "owner",
          "type": "address"
        },
        {
          "indexed": true,
          "internalType": "address",
          "name": "spender",
          "type": "address"
        },
        {
          "indexed": false,
          "internalType": "uint256",
          "name": "value",
          "type": "uint256"
        }
      ],
      "name": "Approval",
      "type": "event"
    },
    {
      "anonymous": false,
      "inputs": [
        {
          "indexed": true,
          "internalType": "address",
          "name": "beacon",
          "type": "address"
        }
      ],
      "name": "BeaconUpgraded",
      "type": "event"
    },
    {
      "anonymous": false,
      "inputs": [
        {
          "indexed": false,
          "internalType": "uint8",
          "name": "version",
          "type": "uint8"
        }
      ],
      "name": "Initialized",
      "type": "event"
    },
    {
      "anonymous": false,
      "inputs": [
        {
          "indexed": true,
          "internalType": "address",
          "name": "previousOwner",
          "type": "address"
        },
        {
          "indexed": true,
          "internalType": "address",
          "name": "newOwner",
          "type": "address"
        }
      ],
      "name": "OwnershipTransferred",
      "type": "event"
    },
    {
      "anonymous": false,
      "inputs": [
        {
          "indexed": false,
          "internalType": "uint256",
          "name": "id",
          "type": "uint256"
        }
      ],
      "name": "Snapshot",
      "type": "event"
    },
    {
      "anonymous": false,
      "inputs": [
        {
          "indexed": true,
          "internalType": "address",
          "name": "from",
          "type": "address"
        },
        {
          "indexed": true,
          "internalType": "address",
          "name": "to",
          "type": "address"
        },
        {
          "indexed": false,
          "internalType": "uint256",
          "name": "value",
          "type": "uint256"
        }
      ],
      "name": "Transfer",
      "type": "event"
    },
    {
      "anonymous": false,
      "inputs": [
        {
          "indexed": true,
          "internalType": "address",
          "name": "implementation",
          "type": "address"
        }
      ],
      "name": "Upgraded",
      "type": "event"
    },
    {
      "inputs": [],
      "name": "INITIAL_SUPPLY",
      "outputs": [
        {
          "internalType": "uint256",
          "name": "",
          "type": "uint256"
        }
      ],
      "stateMutability": "view",
      "type": "function"
    },
    {
      "inputs": [
        {
          "internalType": "address",
          "name": "owner",
          "type": "address"
        },
        {
          "internalType": "address",
          "name": "spender",
          "type": "address"
        }
      ],
      "name": "allowance",
      "outputs": [
        {
          "internalType": "uint256",
          "name": "",
          "type": "uint256"
        }
      ],
      "stateMutability": "view",
      "type": "function"
    },
    {
      "inputs": [
        {
          "internalType": "address",
          "name": "spender",
          "type": "address"
        },
        {
          "internalType": "uint256",
          "name": "amount",
          "type": "uint256"
        }
      ],
      "name": "approve",
      "outputs": [
        {
          "internalType": "bool",
          "name": "",
          "type": "bool"
        }
      ],
      "stateMutability": "nonpayable",
      "type": "function"
    },
    {
      "inputs": [
        {
          "internalType": "address",
          "name": "account",
          "type": "address"
        }
      ],
      "name": "balanceOf",
      "outputs": [
        {
          "internalType": "uint256",
          "name": "",
          "type": "uint256"
        }
      ],
      "stateMutability": "view",
      "type": "function"
    },
    {
      "inputs": [
        {
          "internalType": "address",
          "name": "account",
          "type": "address"
        },
        {
          "internalType": "uint256",
          "name": "snapshotId",
          "type": "uint256"
        }
      ],
      "name": "balanceOfAt",
      "outputs": [
        {
          "internalType": "uint256",
          "name": "",
          "type": "uint256"
        }
      ],
      "stateMutability": "view",
      "type": "function"
    },
    {
      "inputs": [],
      "name": "bridge",
      "outputs": [
        {
          "internalType": "address",
          "name": "",
          "type": "address"
        }
      ],
      "stateMutability": "view",
      "type": "function"
    },
    {
      "inputs": [
        {
          "internalType": "address",
          "name": "from",
          "type": "address"
        },
        {
          "internalType": "uint256",
          "name": "amount",
          "type": "uint256"
        }
      ],
      "name": "bridgeBurn",
      "outputs": [],
      "stateMutability": "nonpayable",
      "type": "function"
    },
    {
      "inputs": [
        {
          "internalType": "address",
          "name": "to",
          "type": "address"
        },
        {
          "internalType": "uint256",
          "name": "amount",
          "type": "uint256"
        }
      ],
      "name": "bridgeMint",
      "outputs": [],
      "stateMutability": "nonpayable",
      "type": "function"
    },
    {
      "inputs": [],
      "name": "decimals",
      "outputs": [
        {
          "internalType": "uint8",
          "name": "",
          "type": "uint8"
        }
      ],
      "stateMutability": "view",
      "type": "function"
    },
    {
      "inputs": [
        {
          "internalType": "address",
          "name": "spender",
          "type": "address"
        },
        {
          "internalType": "uint256",
          "name": "subtractedValue",
          "type": "uint256"
        }
      ],
      "name": "decreaseAllowance",
      "outputs": [
        {
          "internalType": "bool",
          "name": "",
          "type": "bool"
        }
      ],
      "stateMutability": "nonpayable",
      "type": "function"
    },
    {
      "inputs": [
        {
          "internalType": "address",
          "name": "spender",
          "type": "address"
        },
        {
          "internalType": "uint256",
          "name": "addedValue",
          "type": "uint256"
        }
      ],
      "name": "increaseAllowance",
      "outputs": [
        {
          "internalType": "bool",
          "name": "",
          "type": "bool"
        }
      ],
      "stateMutability": "nonpayable",
      "type": "function"
    },
    {
      "inputs": [],
      "name": "initialize",
      "outputs": [],
      "stateMutability": "nonpayable",
      "type": "function"
    },
    {
      "inputs": [],
      "name": "mintTo",
      "outputs": [
        {
          "internalType": "address",
          "name": "",
          "type": "address"
        }
      ],
      "stateMutability": "view",
      "type": "function"
    },
    {
      "inputs": [],
      "name": "name",
      "outputs": [
        {
          "internalType": "string",
          "name": "",
          "type": "string"
        }
      ],
      "stateMutability": "view",
      "type": "function"
    },
    {
      "inputs": [],
      "name": "owner",
      "outputs": [
        {
          "internalType": "address",
          "name": "",
          "type": "address"
        }
      ],
      "stateMutability": "view",
      "type": "function"
    },
    {
      "inputs": [],
      "name": "proxiableUUID",
      "outputs": [
        {
          "internalType": "bytes32",
          "name": "",
          "type": "bytes32"
        }
      ],
      "stateMutability": "view",
      "type": "function"
    },
    {
      "inputs": [],
      "name": "renounceOwnership",
      "outputs": [],
      "stateMutability": "nonpayable",
      "type": "function"
    },
    {
      "inputs": [
        {
          "internalType": "address",
          "name": "_bridge",
          "type": "address"
        }
      ],
      "name": "setBridge",
      "outputs": [],
      "stateMutability": "nonpayable",
      "type": "function"
    },
    {
      "inputs": [],
      "name": "symbol",
      "outputs": [
        {
          "internalType": "string",
          "name": "",
          "type": "string"
        }
      ],
      "stateMutability": "view",
      "type": "function"
    },
    {
      "inputs": [],
      "name": "totalSupply",
      "outputs": [
        {
          "internalType": "uint256",
          "name": "",
          "type": "uint256"
        }
      ],
      "stateMutability": "view",
      "type": "function"
    },
    {
      "inputs": [
        {
          "internalType": "uint256",
          "name": "snapshotId",
          "type": "uint256"
        }
      ],
      "name": "totalSupplyAt",
      "outputs": [
        {
          "internalType": "uint256",
          "name": "",
          "type": "uint256"
        }
      ],
      "stateMutability": "view",
      "type": "function"
    },
    {
      "inputs": [
        {
          "internalType": "address",
          "name": "to",
          "type": "address"
        },
        {
          "internalType": "uint256",
          "name": "amount",
          "type": "uint256"
        }
      ],
      "name": "transfer",
      "outputs": [
        {
          "internalType": "bool",
          "name": "",
          "type": "bool"
        }
      ],
      "stateMutability": "nonpayable",
      "type": "function"
    },
    {
      "inputs": [
        {
          "internalType": "address",
          "name": "from",
          "type": "address"
        },
        {
          "internalType": "address",
          "name": "to",
          "type": "address"
        },
        {
          "internalType": "uint256",
          "name": "amount",
          "type": "uint256"
        }
      ],
      "name": "transferFrom",
      "outputs": [
        {
          "internalType": "bool",
          "name": "",
          "type": "bool"
        }
      ],
      "stateMutability": "nonpayable",
      "type": "function"
    },
    {
      "inputs": [
        {
          "internalType": "address",
          "name": "newOwner",
          "type": "address"
        }
      ],
      "name": "transferOwnership",
      "outputs": [],
      "stateMutability": "nonpayable",
      "type": "function"
    },
    {
      "inputs": [
        {
          "internalType": "address",
          "name": "newImplementation",
          "type": "address"
        }
      ],
      "name": "upgradeTo",
      "outputs": [],
      "stateMutability": "nonpayable",
      "type": "function"
    },
    {
      "inputs": [
        {
          "internalType": "address",
          "name": "newImplementation",
          "type": "address"
        },
        {
          "internalType": "bytes",
          "name": "data",
          "type": "bytes"
        }
      ],
      "name": "upgradeToAndCall",
      "outputs": [],
      "stateMutability": "payable",
      "type": "function"
    }
  ],
  "bytecode": "0x60a06040523060805234801561001457600080fd5b5061001d610022565b6100e1565b600054610100900460ff161561008e5760405162461bcd60e51b815260206004820152602760248201527f496e697469616c697a61626c653a20636f6e747261637420697320696e697469604482015266616c697a696e6760c81b606482015260840160405180910390fd5b60005460ff908116146100df576000805460ff191660ff9081179091556040519081527f7f26b83ff96e1f2b6a682f133852f6798a09c465da95921460cefb38474024989060200160405180910390a15b565b608051612060610118600039600081816105a8015281816105f10152818161070b0152818161074b01526107de01526120606000f3fe6080604052600436106101815760003560e01c806374f4f547116100d157806395d89b411161008a578063a9059cbb11610064578063a9059cbb1461044d578063dd62ed3e1461046d578063e78cea921461048d578063f2fde38b146104ae57600080fd5b806395d89b41146103f8578063981b24d01461040d578063a457c2d71461042d57600080fd5b806374f4f547146103305780638129fc1c146103505780638c2a993e146103655780638da5cb5b146103855780638dd14802146103b757806392123470146103d757600080fd5b80633659cfe61161013e5780634f1ef286116101185780634f1ef286146102bd57806352d1902d146102d057806370a08231146102e5578063715018a61461031b57600080fd5b80633659cfe61461025b578063395093511461027d5780634ee2cd7e1461029d57600080fd5b806306fdde0314610186578063095ea7b3146101b157806318160ddd146101e157806323b872dd146102005780632ff2e9dc14610220578063313ce5671461023f575b600080fd5b34801561019257600080fd5b5061019b6104ce565b6040516101a89190611ad3565b60405180910390f35b3480156101bd57600080fd5b506101d16101cc366004611b1d565b610560565b60405190151581526020016101a8565b3480156101ed57600080fd5b506035545b6040519081526020016101a8565b34801561020c57600080fd5b506101d161021b366004611b47565b61057a565b34801561022c57600080fd5b506101f26a52b7d2dcc80cd2e400000081565b34801561024b57600080fd5b50604051601281526020016101a8565b34801561026757600080fd5b5061027b610276366004611b84565b61059e565b005b34801561028957600080fd5b506101d1610298366004611b1d565b610686565b3480156102a957600080fd5b506101f26102b8366004611b1d565b6106a8565b61027b6102cb366004611bb5565b610701565b3480156102dc57600080fd5b506101f26107d1565b3480156102f157600080fd5b506101f2610300366004611b84565b6001600160a01b031660009081526033602052604090205490565b34801561032757600080fd5b5061027b610884565b34801561033c57600080fd5b5061027b61034b366004611b1d565b610898565b34801561035c57600080fd5b5061027b6108cd565b34801561037157600080fd5b5061027b610380366004611b1d565b610a85565b34801561039157600080fd5b506097546001600160a01b03165b6040516001600160a01b0390911681526020016101a8565b3480156103c357600080fd5b5061027b6103d2366004611b84565b610aba565b3480156103e357600080fd5b506101605461039f906001600160a01b031681565b34801561040457600080fd5b5061019b610b34565b34801561041957600080fd5b506101f2610428366004611c7f565b610b43565b34801561043957600080fd5b506101d1610448366004611b1d565b610b6e565b34801561045957600080fd5b506101d1610468366004611b1d565b610be9565b34801561047957600080fd5b506101f2610488366004611c98565b610bf7565b34801561049957600080fd5b5061015f5461039f906001600160a01b031681565b3480156104ba57600080fd5b5061027b6104c9366004611b84565b610c22565b6060603680546104dd90611ccb565b80601f016020809104026020016040519081016040528092919081815260200182805461050990611ccb565b80156105565780601f1061052b57610100808354040283529160200191610556565b820191906000526020600020905b81548152906001019060200180831161053957829003601f168201915b5050505050905090565b60003361056e818585610c98565b60019150505b92915050565b600033610588858285610dbc565b610593858585610e36565b506001949350505050565b6001600160a01b037f00000000000000000000000000000000000000000000000000000000000000001630036105ef5760405162461bcd60e51b81526004016105e690611d05565b60405180910390fd5b7f00000000000000000000000000000000000000000000000000000000000000006001600160a01b0316610638600080516020611fe4833981519152546001600160a01b031690565b6001600160a01b03161461065e5760405162461bcd60e51b81526004016105e690611d51565b61066781610fec565b6040805160008082526020820190925261068391839190610ff4565b50565b60003361056e8185856106998383610bf7565b6106a39190611db3565b610c98565b6001600160a01b0382166000908152606560205260408120819081906106cf908590611164565b91509150816106f6576001600160a01b0385166000908152603360205260409020546106f8565b805b95945050505050565b6001600160a01b037f00000000000000000000000000000000000000000000000000000000000000001630036107495760405162461bcd60e51b81526004016105e690611d05565b7f00000000000000000000000000000000000000000000000000000000000000006001600160a01b0316610792600080516020611fe4833981519152546001600160a01b031690565b6001600160a01b0316146107b85760405162461bcd60e51b81526004016105e690611d51565b6107c182610fec565b6107cd82826001610ff4565b5050565b6000306001600160a01b037f000000000000000000000000000000000000000000000000000000000000000016146108715760405162461bcd60e51b815260206004820152603860248201527f555550535570677261646561626c653a206d757374206e6f742062652063616c60448201527f6c6564207468726f7567682064656c656761746563616c6c000000000000000060648201526084016105e6565b50600080516020611fe483398151915290565b61088c61125a565b61089660006112b4565b565b61015f546001600160a01b031633146108c35760405162461bcd60e51b81526004016105e690611dc6565b6107cd8282611306565b600054610100900460ff16158080156108ed5750600054600160ff909116105b806109075750303b158015610907575060005460ff166001145b61096a5760405162461bcd60e51b815260206004820152602e60248201527f496e697469616c697a61626c653a20636f6e747261637420697320616c72656160448201526d191e481a5b9a5d1a585b1a5e995960921b60648201526084016105e6565b6000805460ff19166001179055801561098d576000805461ff0019166101001790555b6109d76040518060400160405280600c81526020016b2a37b737b6bc902a37b5b2b760a11b81525060405180604001604052806004815260200163544f4e4f60e01b815250611446565b6109df611477565b6109e761149e565b6109ef6114cd565b6109f7611477565b60975461015f80546001600160a01b03199081166001600160a01b03909316928317909155610160805490911682179055610a3d906a52b7d2dcc80cd2e40000006114fc565b8015610683576000805461ff0019169055604051600181527f7f26b83ff96e1f2b6a682f133852f6798a09c465da95921460cefb38474024989060200160405180910390a150565b61015f546001600160a01b03163314610ab05760405162461bcd60e51b81526004016105e690611dc6565b6107cd82826114fc565b610ac261125a565b6001600160a01b038116610b115760405162461bcd60e51b8152602060048201526016602482015275496e76616c696420627269646765206164647265737360501b60448201526064016105e6565b61015f80546001600160a01b0319166001600160a01b0392909216919091179055565b6060603780546104dd90611ccb565b6000806000610b53846066611164565b9150915081610b6457603554610b66565b805b949350505050565b60003381610b7c8286610bf7565b905083811015610bdc5760405162461bcd60e51b815260206004820152602560248201527f45524332303a2064656372656173656420616c6c6f77616e63652062656c6f77604482015264207a65726f60d81b60648201526084016105e6565b6105938286868403610c98565b60003361056e818585610e36565b6001600160a01b03918216600090815260346020908152604080832093909416825291909152205490565b610c2a61125a565b6001600160a01b038116610c8f5760405162461bcd60e51b815260206004820152602660248201527f4f776e61626c653a206e6577206f776e657220697320746865207a65726f206160448201526564647265737360d01b60648201526084016105e6565b610683816112b4565b6001600160a01b038316610cfa5760405162461bcd60e51b8152602060048201526024808201527f45524332303a20617070726f76652066726f6d20746865207a65726f206164646044820152637265737360e01b60648201526084016105e6565b6001600160a01b038216610d5b5760405162461bcd60e51b815260206004820152602260248201527f45524332303a20617070726f766520746f20746865207a65726f206164647265604482015261737360f01b60648201526084016105e6565b6001600160a01b0383811660008181526034602090815260408083209487168084529482529182902085905590518481527f8c5be1e5ebec7d5bd14f71427d1e84f3dd0314c0f7b2291e5b200ac8c7c3b925910160405180910390a3505050565b6000610dc88484610bf7565b90506000198114610e305781811015610e235760405162461bcd60e51b815260206004820152601d60248201527f45524332303a20696e73756666696369656e7420616c6c6f77616e636500000060448201526064016105e6565b610e308484848403610c98565b50505050565b6001600160a01b038316610e9a5760405162461bcd60e51b815260206004820152602560248201527f45524332303a207472616e736665722066726f6d20746865207a65726f206164604482015264647265737360d81b60648201526084016105e6565b6001600160a01b038216610efc5760405162461bcd60e51b815260206004820152602360248201527f45524332303a207472616e7366657220746f20746865207a65726f206164647260448201526265737360e81b60648201526084016105e6565b610f078383836115c9565b6001600160a01b03831660009081526033602052604090205481811015610f7f5760405162461bcd60e51b815260206004820152602660248201527f45524332303a207472616e7366657220616d6f756e7420657863656564732062604482015265616c616e636560d01b60648201526084016105e6565b6001600160a01b0380851660008181526033602052604080822086860390559286168082529083902080548601905591517fddf252ad1be2c89b69c2b068fc378daa952ba7f163c4a11628f55a4df523b3ef90610fdf9086815260200190565b60405180910390a3610e30565b61068361125a565b7f4910fdfa16fed3260ed0e7147f7cc6da11a60208b5b9406d12a635614ffd91435460ff161561102c57611027836115d4565b505050565b826001600160a01b03166352d1902d6040518163ffffffff1660e01b8152600401602060405180830381865afa925050508015611086575060408051601f3d908101601f1916820190925261108391810190611e0b565b60015b6110e95760405162461bcd60e51b815260206004820152602e60248201527f45524331393637557067726164653a206e657720696d706c656d656e7461746960448201526d6f6e206973206e6f74205555505360901b60648201526084016105e6565b600080516020611fe483398151915281146111585760405162461bcd60e51b815260206004820152602960248201527f45524331393637557067726164653a20756e737570706f727465642070726f786044820152681a58589b195555525160ba1b60648201526084016105e6565b50611027838383611670565b600080600084116111b05760405162461bcd60e51b815260206004820152601660248201527504552433230536e617073686f743a20696420697320360541b60448201526064016105e6565b6111b8611695565b8411156112075760405162461bcd60e51b815260206004820152601d60248201527f4552433230536e617073686f743a206e6f6e6578697374656e7420696400000060448201526064016105e6565b600061121384866116a5565b8454909150810361122b576000809250925050611253565b600184600101828154811061124257611242611e24565b906000526020600020015492509250505b9250929050565b6097546001600160a01b031633146108965760405162461bcd60e51b815260206004820181905260248201527f4f776e61626c653a2063616c6c6572206973206e6f7420746865206f776e657260448201526064016105e6565b609780546001600160a01b038381166001600160a01b0319831681179093556040519116919082907f8be0079c531659141344cd1fd0a4f28419497f9722a3daafe3b4186f6b6457e090600090a35050565b6001600160a01b0382166113665760405162461bcd60e51b815260206004820152602160248201527f45524332303a206275726e2066726f6d20746865207a65726f206164647265736044820152607360f81b60648201526084016105e6565b611372826000836115c9565b6001600160a01b038216600090815260336020526040902054818110156113e65760405162461bcd60e51b815260206004820152602260248201527f45524332303a206275726e20616d6f756e7420657863656564732062616c616e604482015261636560f01b60648201526084016105e6565b6001600160a01b03831660008181526033602090815260408083208686039055603580548790039055518581529192917fddf252ad1be2c89b69c2b068fc378daa952ba7f163c4a11628f55a4df523b3ef910160405180910390a3505050565b600054610100900460ff1661146d5760405162461bcd60e51b81526004016105e690611e3a565b6107cd8282611752565b600054610100900460ff166108965760405162461bcd60e51b81526004016105e690611e3a565b600054610100900460ff166114c55760405162461bcd60e51b81526004016105e690611e3a565b610896611792565b600054610100900460ff166114f45760405162461bcd60e51b81526004016105e690611e3a565b6108966117c2565b6001600160a01b0382166115525760405162461bcd60e51b815260206004820152601f60248201527f45524332303a206d696e7420746f20746865207a65726f20616464726573730060448201526064016105e6565b61155e600083836115c9565b80603560008282546115709190611db3565b90915550506001600160a01b0382166000818152603360209081526040808320805486019055518481527fddf252ad1be2c89b69c2b068fc378daa952ba7f163c4a11628f55a4df523b3ef910160405180910390a35050565b6110278383836117f0565b6001600160a01b0381163b6116415760405162461bcd60e51b815260206004820152602d60248201527f455243313936373a206e657720696d706c656d656e746174696f6e206973206e60448201526c1bdd08184818dbdb9d1c9858dd609a1b60648201526084016105e6565b600080516020611fe483398151915280546001600160a01b0319166001600160a01b0392909216919091179055565b61167983611838565b6000825111806116865750805b1561102757610e308383611878565b60006116a060685490565b905090565b815460009081036116b857506000610574565b82546000905b808210156117055760006116d283836118a4565b600087815260209020909150859082015411156116f1578091506116ff565b6116fc816001611db3565b92505b506116be565b60008211801561173157508361172e86611720600186611e85565b600091825260209091200190565b54145b1561174a57611741600183611e85565b92505050610574565b509050610574565b600054610100900460ff166117795760405162461bcd60e51b81526004016105e690611e3a565b60366117858382611ee6565b5060376110278282611ee6565b600054610100900460ff166117b95760405162461bcd60e51b81526004016105e690611e3a565b610896336112b4565b600054610100900460ff166117e95760405162461bcd60e51b81526004016105e690611e3a565b600160c955565b6001600160a01b03831661180f57611807826118bf565b6110276118f2565b6001600160a01b03821661182657611807836118bf565b61182f836118bf565b611027826118bf565b611841816115d4565b6040516001600160a01b038216907fbc7cd75a20ee27fd9adebab32041f755214dbc6bffa90cc0225b39da2e5c2d3b90600090a250565b606061189d838360405180606001604052806027815260200161200460279139611900565b9392505050565b60006118b36002848418611fa5565b61189d90848416611db3565b6001600160a01b03811660009081526065602090815260408083206033909252909120546106839190611978565b611978565b61089660666118ed60355490565b6060600080856001600160a01b03168560405161191d9190611fc7565b600060405180830381855af49150503d8060008114611958576040519150601f19603f3d011682016040523d82523d6000602084013e61195d565b606091505b509150915061196e868383876119c2565b9695505050505050565b6000611982611695565b90508061198e84611a3b565b1015611027578254600180820185556000858152602080822090930193909355938401805494850181558252902090910155565b60608315611a31578251600003611a2a576001600160a01b0385163b611a2a5760405162461bcd60e51b815260206004820152601d60248201527f416464726573733a2063616c6c20746f206e6f6e2d636f6e747261637400000060448201526064016105e6565b5081610b66565b610b668383611a85565b80546000908103611a4e57506000919050565b81548290611a5e90600190611e85565b81548110611a6e57611a6e611e24565b90600052602060002001549050919050565b919050565b815115611a955781518083602001fd5b8060405162461bcd60e51b81526004016105e69190611ad3565b60005b83811015611aca578181015183820152602001611ab2565b50506000910152565b6020815260008251806020840152611af2816040850160208701611aaf565b601f01601f19169190910160400192915050565b80356001600160a01b0381168114611a8057600080fd5b60008060408385031215611b3057600080fd5b611b3983611b06565b946020939093013593505050565b600080600060608486031215611b5c57600080fd5b611b6584611b06565b9250611b7360208501611b06565b929592945050506040919091013590565b600060208284031215611b9657600080fd5b61189d82611b06565b634e487b7160e01b600052604160045260246000fd5b60008060408385031215611bc857600080fd5b611bd183611b06565b9150602083013567ffffffffffffffff811115611bed57600080fd5b8301601f81018513611bfe57600080fd5b803567ffffffffffffffff811115611c1857611c18611b9f565b604051601f8201601f19908116603f0116810167ffffffffffffffff81118282101715611c4757611c47611b9f565b604052818152828201602001871015611c5f57600080fd5b816020840160208301376000602083830101528093505050509250929050565b600060208284031215611c9157600080fd5b5035919050565b60008060408385031215611cab57600080fd5b611cb483611b06565b9150611cc260208401611b06565b90509250929050565b600181811c90821680611cdf57607f821691505b602082108103611cff57634e487b7160e01b600052602260045260246000fd5b50919050565b6020808252602c908201527f46756e6374696f6e206d7573742062652063616c6c6564207468726f7567682060408201526b19195b1959d85d1958d85b1b60a21b606082015260800190565b6020808252602c908201527f46756e6374696f6e206d7573742062652063616c6c6564207468726f7567682060408201526b6163746976652070726f787960a01b606082015260800190565b634e487b7160e01b600052601160045260246000fd5b8082018082111561057457610574611d9d565b60208082526025908201527f546f6e6f6d79546f6b656e3a2063616c6c6572206973206e6f74207468652062604082015264726964676560d81b606082015260800190565b600060208284031215611e1d57600080fd5b5051919050565b634e487b7160e01b600052603260045260246000fd5b6020808252602b908201527f496e697469616c697a61626c653a20636f6e7472616374206973206e6f74206960408201526a6e697469616c697a696e6760a81b606082015260800190565b8181038181111561057457610574611d9d565b601f82111561102757806000526020600020601f840160051c81016020851015611ebf5750805b601f840160051c820191505b81811015611edf5760008155600101611ecb565b5050505050565b815167ffffffffffffffff811115611f0057611f00611b9f565b611f1481611f0e8454611ccb565b84611e98565b6020601f821160018114611f485760008315611f305750848201515b600019600385901b1c1916600184901b178455611edf565b600084815260208120601f198516915b82811015611f785787850151825560209485019460019092019101611f58565b5084821015611f965786840151600019600387901b60f8161c191681555b50505050600190811b01905550565b600082611fc257634e487b7160e01b600052601260045260246000fd5b500490565b60008251611fd9818460208701611aaf565b919091019291505056fe360894a13ba1a3210667c828492db98dca3e2076cc3735a920a3ca505d382bbc416464726573733a206c6f772d6c6576656c2064656c65676174652063616c6c206661696c6564a264697066735822122072cd858d262690525752d1226010f1cbef192e6ca24577bf684ee2638423f75964736f6c634300081c0033",
  "linkReferences": {},
  "deployedLinkReferences": {}
}